:020000040800F2
:1000000028A300209D010008A5010008A701000801
:10001000A9010008AB010008AD01000800000000C4
:10002000000000000000000000000000AF01000818
:10003000B101000800000000B3010008B50100088C
:10004000B7010008B7010008B7010008B7010008B0
:10005000B7010008B7010008B7010008B7010008A0
:10006000B7010008B7010008B7010008B701000890
:10007000B7010008B7010008B7010008B701000880
:10008000B7010008B7010008B7010008B701000870
:10009000B7010008B7010008B7010008B701000860
:1000A000B7010008B7010008B7010008B701000850
:1000B000B7010008B7010008B7010008B701000840
:1000C000B7010008B7010008B7010008B701000830
:1000D000B7010008B7010008B7010008B701000820
:1000E000B7010008B7010008B7010008B701000810
:1000F000B7010008B7010008B7010008B701000800
:10010000B7010008B7010008B7010008B7010008EF
:10011000B7010008B7010008BD000108B7010008D9
:10012000B7010008B7010008B7010008B7010008CF
:10013000B7010008B7010008B7010008B7010008BF
:10014000B7010008B7010008B7010008B7010008AF
:10015000B7010008B7010008B7010008B70100089F
:10016000B7010008B7010008B7010008B70100088F
:10017000B7010008B7010008B7010008B70100087F
:10018000B7010008B7010008DFF80CD000F026FB2B
:1001900000480047D524010828A3002006488047CE
:1001A00006480047FEE7FEE7FEE7FEE7FEE7FEE75C
:1001B000FEE7FEE7FEE7FEE75500010889010008BB
:1001C00040EA01039B0703D009E008C9121F08C0D9
:1001D000042AFAD203E011F8013B00F8013B521E59
:1001E000F9D27047D2B201E000F8012B491EFBD2D0
:1001F00070470022F6E710B513460A460446194632
:10020000FFF7F0FF204610BD2DE9FE4F81EA030401
:1002100004F0004421F0004100944FF0000B23F063
:10022000004350EA01045ED052EA03045BD0C3F3FA
:100230000A54C1F30A552C44A4F2F3340194A0FBF0
:100240000254C1F3130141F48011C3F3130343F4C7
:10025000801301FB024400FB034E840A970A44EA20
:10026000815447EA8357A4FB076802958D0A05FB72
:1002700007854FEA932C04FB0C542705029D4FEA97
:10028000065847EA1637B5EB08056EEB070C870EE4
:10029000920E47EA811742EA8312A7FB0201B6EBEE
:1002A0000B0164EB00042B0D43EA0C335E1844EBA6
:1002B0001C50DA465146E7FB0201C5F313044FEA2E
:1002C0000B3343EA14534FEA0432019C43EA06031A
:1002D000A4F10C040294009CCDE900B400F038F9BC
:1002E00003B0BDE8F08F00200146F9E72DE9F04D9D
:1002F00081EA030404F0004B21F0004514464FF05E
:10030000000A23F0004150EA050220D054EA01021D
:100310001DD0C5F30A570246C5F31303C1F31300FA
:10032000C1F30A5640F4801543F48013A7EB060886
:10033000101BD64608F2FD3873EB050002D308F116
:10034000010801E092185B41B8F1000F03DA0020C8
:100350000146BDE8F08D00204FF48011064684462A
:100360000EE0171B73EB050705D3121B63EB0503A8
:1003700006434CEA010C49084FEA300092185B41F1
:1003800050EA0107EDD152EA030012D082EA0400DC
:1003900083EA0501084305D0101BAB4106D20122B8
:1003A000002306E000224FF0004302E06FF001025C
:1003B00053101AEB06004CEB085110EB0A0041EB0E
:1003C0000B01BDE8F04D00F0B4B80EB5C10F80EAE6
:1003D000E0700844CA07002140F233438DE80E0064
:1003E0000A460B4600F0B4F803B000BD0EB540F26B
:1003F000334102910021CDE900110A460B4600F07D
:10040000A7F803B000BD00F0004230F000400AD071
:10041000C10D01F56071C0F3160042EA0151C20836
:1004200040071143704700200146704730B5041E55
:1004300071F1000404DB4FF00044404264EB010121
:10044000141E73F1000405DB1C464FF000435242BA
:1004500063EB04038B4208BF824230BD30B5041EFB
:1004600071F1000404DB4FF00044404264EB0101F1
:10047000141E73F1000405DB1C464FF0004352428A
:1004800063EB0403994208BF904230BD01F0004382
:1004900030B421F0004150EA010206D00A0DA2F565
:1004A0006072C1F31301002A02DC30BC00207047E7
:1004B000440F44EAC104C100E01830BC00EBC25054
:1004C000AFF300800029A8BF7047401C490008BF57
:1004D00020F00100704710B4B0FA80FC00FA0CF074
:1004E00050EA010404BF10BC704749B1CCF12004AC
:1004F00021FA04F411FA0CF118BF01212143084339
:10050000A3EB0C01CB1D4FEA00614FEA102042BF64
:10051000002010BC704700EBC35010440029A4BF5A
:1005200010BC7047401C490008BF20F0010010BCFF
:10053000704710B5141E73F1000408DA401C41F135
:10054000000192185B411A4301D120F0010010BD57
:100550002DE9F04D92469B4611B1B1FA81F202E0CD
:10056000B0FA80F22032904600F04AF904460F4675
:1005700040EA0A0041EA0B0153465A46084313D0A9
:10058000114653EA010019D0C8F14002504600F06C
:1005900046F905460E4650465946424600F030F9A7
:1005A000084305D0012004E020463946BDE8F08D1F
:1005B0000020054346EAE0762C4337430A9863055A
:1005C000E40AA0EB08000022FD0A44EA47540A307E
:1005D00002D500200146E9E7010510196941DDE96E
:1005E000084500196941BDE8F04DA2E72DE9FE4F2D
:1005F000804681EA0300C00F0C46009021F00041C4
:1006000023F00045B8EB0200A94105D2404621463F
:1006100090461C460B46024623F00040104347D04C
:10062000270DC7F30A00C3F30A510290401A019044
:1006300040286BDAC3F3130040F4801B0098924605
:1006400020B10023D2EB030A63EB0B0B0198594650
:10065000C0F14002504600F0D3F806460D46504621
:100660005946019A00F0EBF810EB080061410024B4
:1006700087EA115284EAE7731A4340D0009A62B3C2
:10068000019A012A4FEA075215DC001B61EB0201B7
:100690004FF0004202EA0752CDE90042001C41F54A
:1006A000801132462B46FFF753FF03B0BDE8F08FB1
:1006B00040462146F9E7001B61EB0201001C41F5B1
:1006C000801300185B412018A2F5001747EB0301C7
:1006D00040EAD570B6196D4111E06D084FEA360653
:1006E00045EAC0754FEA0752001B61EB0201001C8E
:1006F00041F5801149084FEA300000195141324656
:100700002B4603B0BDE8F04FFFF713BF009801225E
:1007100040000023D0EB020263EBE0730098214617
:100720004FEAE074B8EB000061EB0401E9E783F005
:1007300000435BE781F0004158E72DE9F04D0023CD
:100740001A461B1A8A4103DB00200146BDE8F08DE2
:10075000C1F30A52C1F3130141F480154FF0000BAD
:10076000D10702D100186D41521E0027044640F205
:10077000FF11384601EB620A3E46804602460020E1
:100780004FF4801100F04BF8C2197141BB1846EBD1
:100790000100B4EB030C75EB000C04D3E41A65EB19
:1007A000000517460E46241908F101006D418046E8
:1007B0003428E3DDF91946EB0600091BA84103D2F2
:1007C0004FF0FF32134601E0002213461BEB0700F7
:1007D00046EB0A51BDE8F04DFFF7ABBE064C074DA6
:1007E00006E0E06840F0010394E807009847103401
:1007F000AC42F6D3FFF7CCFCF0290108102A01081F
:10080000202A04DB203A00FA02F1002070479140D0
:10081000C2F1200320FA03F3194390407047202AC5
:1008200004DB203A21FA02F00021704721FA02F39A
:10083000D040C2F120029140084319467047202A57
:1008400006DBCB17203A41FA02F043EAE07306E0F8
:1008500041FA02F3D040C2F1200291400843194608
:10086000704770B5C1F30A5201F000450024C1F38E
:10087000130140F2FF3341F480119A4201DA002063
:1008800070BD40F233439A42A2F2334203DC52423B
:10089000FFF7C5FF00E090402C43F1D0404270BD0F
:1008A00070B58C1810F8015B15F0070301D110F832
:1008B000013B2A1106D110F8012B03E010F8016B5F
:1008C00001F8016B5B1EF9D12B0705D40023521EE2
:1008D0000DD401F8013BFAE710F8013BCB1A921C4A
:1008E00003E013F8015B01F8015B521EF9D5A14248
:1008F000D8D3002070BDF0EE400AF5EEC00AF1EE4C
:1009000010FA02DDB0EE600A7047B1EE600AFBE754
:10091000F0EE400A9FED020A20EE800A70470000C8
:1009200035FA8E3C70B52DED068B04460D46164605
:100930006A4890ED000AF8EE000A20EE200A6848A6
:10094000D0ED000A20EE200A6648D0ED000AB0EE95
:10095000001A60EE810A644890ED001A00EE810AE8
:1009600010EE101A0846FFF74EFD41EC190BB0EEE1
:10097000490AF0EE690A10F007FCB0EE408AF0EE8A
:10098000608A51EC180BFFF781FD2860534890ED09
:10099000000AF8EE000A20EE200AD0ED000A20EE50
:1009A000200A5148D0ED000AB0EE001A60EE810A2C
:1009B00090ED001A00EEC10AF7EE000A30EE200AB0
:1009C00010EE101A0846FFF71EFD41EC190B4648C1
:1009D00090ED000AF0EE000A20EE200A4048D0ED2B
:1009E000000A20EE200A3F48D0ED000AB0EE001ABF
:1009F00060EE810A394890ED001A00EE810A10EE8F
:100A0000101A0846FFF7FFFC41EC1A0BB0EE491A2A
:100A1000F0EE691AB0EE4A0AF0EE6A0A10F0D0FE63
:100A2000B0EE408AF0EE608A51EC180BFFF72EFD15
:100A300030602C4890ED000AD0ED000A20EE200A2C
:100A40002648D0ED000A90ED001A00EE810A2648F3
:100A5000D0ED000A90ED001A00EEC10A2048D0ED5A
:100A6000000A90ED001A00EEC10A10EE101A0846B6
:100A7000FFF7C9FC41EC190B184890ED000A1A4821
:100A8000D0ED000A20EE200A1648D0ED000A1448E6
:100A900090ED001A00EE810AF0EE000A20EE200A26
:100AA00010EE101A0846FFF7AEFC41EC1A0BB0EE40
:100AB000491AF0EE691AB0EE4A0AF0EE6A0A10F02E
:100AC0007FFEB0EE408AF0EE608A51EC180BFFF723
:100AD000DDFC2060BDEC068B70BD000064010020D1
:100AE0006C0100206001002068010020DFED0D0A8C
:100AF000B4EEE00AF1EE10FA06DDDFED0B0A70EE5F
:100B0000600AB0EE600A0CE0DFED080AB4EEE00A1D
:100B1000F1EE10FA05D2DFED040A70EE200AB0EE15
:100B2000600A7047DB0F4940DB0FC940DB0F49C04B
:100B3000F0EE400A9FED020A20EE800A70470000A6
:100B4000E12E654210B52DED0E8BB0EE408AF0EE31
:100B500060DAB0EE41EAB0EE000ACEEE000A10EE26
:100B6000904A2046FFF74FFC41EC1C0BB0EE4C0ABC
:100B7000F0EE6C0A10F01CFFB0EE40BAF0EE60BA76
:100B800051EC1B0BFFF782FC08EE900AB0EE000A56
:100B9000CEEE000A10EE904A2046FFF734FC41ECFE
:100BA0001C0BB0EE4C0AF0EE6C0A10F071FFB0EEC8
:100BB00040BAF0EE60BA51EC1B0BFFF767FC09EE90
:100BC000100AB0EE000ACDEE800A10EE904A2046E0
:100BD000FFF719FC41EC1C0BB0EE4C0AF0EE6C0A6E
:100BE00010F0E6FEB0EE40BAF0EE60BA51EC1B0B2E
:100BF000FFF74CFC09EE900AB0EE000ACDEE800A39
:100C000010EE904A2046FFF7FEFB41EC1C0BB0EEC5
:100C10004C0AF0EE6C0A10F03BFFB0EE40BAF0EE7A
:100C200060BA51EC1B0BFFF731FC0AEE100AB0EE74
:100C3000000AC8EE000A10EE904A2046FFF7E3FBD8
:100C400041EC1C0BB0EE4C0AF0EE6C0A10F0B0FE5A
:100C5000B0EE40BAF0EE60BA51EC1B0BFFF716FC99
:100C60000AEE900AB0EE000AC8EE000A10EE904AB2
:100C70002046FFF7C8FB41EC1C0BB0EE4C0AF0EE2F
:100C80006C0A10F005FFB0EE40BAF0EE60BA51EC1D
:100C90001B0BFFF7FBFB0DEE100A28EEA90A20EE56
:100CA0002A0A69EE0A0A00EE8D0A154880ED000A4C
:100CB00029EE290A20EE2A0A68EE8A0A00EECD0AF9
:100CC000104880ED000A28EE8A0A20EE2A0A69EE12
:100CD000290A00EE8D0A0C4880ED000A28EEA90AC8
:100CE00020EE0D0A69EE0A0A00EEEA0A074880EDD6
:100CF000000A074880ED008ABDEC0E8B10BD000095
:100D00006001002064010020680100206C010020C7
:100D10005C01002000B52DED108B83B0F0EE406A31
:100D2000B0EE606AB0EE415AF0EE614AB0EE424A6F
:100D3000F0EE625AB0EE660AFFF7EAFDF0EE406AA6
:100D4000B0EE460AFFF7E4FDB0EE406AB0EE450AA9
:100D5000FFF7DEFDB0EE405AD84880ED005AD84883
:100D600090ED000AB1EE400A20EE260AD548D0EDFB
:100D7000000A00EEC60AD448D0ED000A00EEC50A0B
:100D8000F6EE000A20EE200AB0EE40FACF4890EDD1
:100D9000000A20EE260ACB48D0ED000A00EE850AB4
:100DA000C948D0ED000A00EEC60AF6EE000A20EEB1
:100DB000200AF0EE40FAC54890ED000A20EE060A3F
:100DC000BF48D0ED000A00EEC50ABF48D0ED000ACA
:100DD00000EEA60AF6EE000A20EE200A8DED010ACA
:100DE000BA4890ED000A20EE050AB548D0ED000A99
:100DF00000EE860AB348D0ED000A00EEE60AF6EEF1
:100E0000000A20EE200A8DED000AF5EEC04AF1EE50
:100E100010FA09D1B5EEC04AF1EE10FA04D1F5EEA0
:100E2000C05AF1EE10FA7DD064EEA40A44EE040A32
:100E300045EEA50AB0EE600A11F024FBF0EE402A60
:100E4000B0EE620A24EE800AF0EE404AB0EE620A8A
:100E500024EE000AB0EE404AB0EE620A25EE800AA7
:100E6000F0EE405A994890ED000AF0EE000A20EEAC
:100E7000209A934890ED000AF0EE000A60EE209A66
:100E8000904890ED000AF0EE000A20EE20AA8E486D
:100E900090ED000AF0EE000A60EE20AA8B4890ED7B
:100EA000000AF1EE000A20EE20BA854890ED000A13
:100EB000F1EE000A20EE208A824890ED000AF1EE61
:100EC000000A60EE208A7E4890ED000AF2EE000AE9
:100ED00060EE20BA7B4890ED000AF2EE000A20EEA8
:100EE00020CA7A4890ED000AD0ED000A60EE20CAD0
:100EF000734890ED000AD0ED000A20EE207A714888
:100F000090ED000AD0ED000A60EE207A6E4890ED78
:100F1000000AD0ED000A20EE20DA2BEE270A0AEEB6
:100F2000240A00E068E00BEE070AF0EE40DA49EE32
:100F3000C4DA28EE0D0A0AEEE40AF1EE000A6CEEBD
:100F4000A00A5F4890ED001A00EE810A09EE440AFB
:100F500030EE480A0BEE870A0BEEA70AB0EE40EA25
:100F600008EE25EAB1EE000A2CEE800A5548D0EDD5
:100F7000000A20EE200A09EE240A08EE8D0A0AEE85
:100F8000C40A30EE680A0CEE070A0CEE270A08EED7
:100F9000A50A8DED020AB1EE000A27EE000A4A48C2
:100FA000D0ED000A20EE200A09EEE40AF1EE000A74
:100FB00067EEA00A90ED001A00EE810AF0EE40EA1A
:100FC0004AEE44EAB0EE4F0A03EE6D0AB0EE40FA84
:100FD000B0EE6F0A03EE4E0AF0EE40FA9DED010A04
:100FE000DDED020A03EE600A8DED010A9DED000AB7
:100FF00003EE6E0A8DED000A344890ED000A0FEE04
:10100000230A80ED000A2E4890ED000A0FEEA30A95
:1010100080ED000A2B48D0ED000A9DED010A40EE5C
:10102000230AC0ED000A2848D0ED000A9DED000A11
:1010300040EE230AC0ED000A2448D0ED000A90EDEE
:10104000001A60EE810A1E4890ED001AD0ED001AD9
:1010500041EE210A1B4890ED001AD0ED001A41EE36
:10106000210A194890ED001AD0ED001A41EE210A2C
:10107000B0EE600A11F006FAF0EE402A134890ED47
:10108000000A20EE220A80ED000A0D4890ED000AC9
:1010900020EE220A80ED000A0A4890ED000A20EEB8
:1010A000220A80ED000A084890ED000A20EE220A8C
:1010B00080ED000A03B0BDEC108B00BD580100208C
:1010C00064010020680100206C0100206001002004
:1010D00000B5F0EE401AB0EE602A1048D0ED000ADC
:1010E00070EEE10AB0EE600AFFF700FDF0EE402A74
:1010F0000B4890ED000A02EE620AB0EE403A074853
:10110000D0ED000A43EE010AB0EE600AFFF7EEFCF4
:10111000024880ED000A90ED000A00BD5C0100204D
:101120005801002000B500F0DDF89FED4A0A10EEEE
:10113000100A4949C1F8C8009FED480A10EE100A8C
:10114000C1F8CC009FED460A10EE100AC1F8D0009D
:101150009FED440A10EE100AC1F8D4009FED3F0A3B
:1011600010EE100AC1F8D8009FED3F0A10EE101AD9
:101170003948C0F8DC109FED3D0A10EE101AC0F897
:10118000E0109FED3B0A10EE101AC0F8E4109FED3E
:10119000340A10EE100A3049C1F8E8009FED330A16
:1011A00010EE101A2C48C0F8EC109FED320A10EE29
:1011B000101AC0F8F0109FED300A10EE101AC0F8A7
:1011C000F4109FED280A10EE100A2349C1F8F80028
:1011D0009FED270A10EE101A1F48C0F8FC109FED73
:1011E000260A10EE101AC0F800119FED240A10EE26
:1011F000101AC0F80411B7EE000A10EE100A1649D2
:101200008865B7EE000A10EE101A13480167B7EEB2
:10121000000A10EE101A41679FED190A10EE100A2D
:101220000D4908609FED160A10EE100A48609FED08
:10123000140A10EE100A8860124890ED1B0A10EE96
:10124000100AC8609FED0E0A10EE100AC1F80C01DA
:1012500000BD00003C15CC45981B002027525E4481
:10126000C16BB241C16BB2C156177C43463BDC40F7
:10127000463BDCC0D21A703F2A1A70BF291A703F51
:1012800000000000F00100209FED0F0A10EE100A90
:101290000E4908609FED0E0A10EE100A48609FED9F
:1012A0000D0A10EE100A88609FED0B0A10EE100A6E
:1012B000C8609FED0A0A10EE100A08619FED080A47
:1012C00010EE100A486170476F12833AA81C002084
:1012D0000AD7233CCDCCCC3D6F12033BB7433A51E8
:1012E000ACC527370C4800680C4988670A48406835
:1012F000C1F88C0008488068C1F8A0000648C068A2
:10130000C1F8B40004480069C1F8B8000248406957
:10131000C1F8C40070470000A81C0020981B0020E2
:1013200000B52DED088B89B009200EF057FF9FED19
:10133000CE1AC0EE010A10EE900ACC49C1F808019D
:101340000846D0F8080100EE100ADFEDC90AB4EE35
:10135000E00AF1EE10FA05D29FEDC50A10EE100A70
:10136000C1F80801C148D0F8080108EE900ABF484A
:10137000D0F8080100EE100A60EE289ABD48006817
:10138000002874DCBB480068401C78B9BA4890ED6E
:10139000130AB5EEC00AF1EE10FA03D109B0BDECA4
:1013A000088B00BD0020B3490860F7E7AF48D0F8CC
:1013B000080100EE100AF1EE000A80EE808AAE48C5
:1013C00090ED130AAD48D0ED000A08EE200AF7EEC2
:1013D000000A78EE200A80EE201A80ED001AA64856
:1013E00090ED130AA548D0ED000A30EEC00A10EEC9
:1013F000101A0846FFF707F841EC1B0BB0EE4B0A3A
:10140000F0EE6B0A10F038FBB0EE40AAF0EE60AAE6
:101410009FED9B0B53EC102B51EC1A0BFFF706F8CA
:1014200026D296480068FEF7EEFF41EC1B0BB0EEAB
:101430004B0AF0EE6B0A10F01FFBB0EE40AAF0EE84
:1014400060AA9FED910B53EC102B51EC1A0BFEF799
:10145000EDFF0DD28548D0F8080100EE100A8C4847
:10146000D0ED000A30EE200A80ED000A05E03EE0F3
:101470009FED880A864880ED000A854890ED000AB5
:10148000F3EE040AB4EEE00AF1EE10FA10DD7B4848
:1014900000687649C860794890ED000A7E4880ED82
:1014A0001B0A0120734908607B49C1F894001DE0C4
:1014B0006E48D0F8080100EE100AF0EE000A80EE47
:1014C000801AB0EE418A6C4890ED150A67480068B2
:1014D00000EE900A00EE880AF7EE000A38EE201AB5
:1014E000C0EE010A10EE900A6049086056E7B7EEB8
:1014F000000A10EE100A5D49886118EE900AC86172
:10150000F0EE000A89EEA00A10EE100A0862B7EEAB
:10151000000A10EE101A5548C16218EE900A53499D
:101520000863B7EE000A10EE101A50480164B7EED7
:10153000000A10EE101A41654F4890ED150A10EEA2
:10154000100A4A4908610846D0F80C0100EE100A5A
:101550000846D0F8080100EE900A80EE209A46482E
:1015600090ED130A0846406900EE900A09EE200A41
:10157000F7EE000A39EE201AC0EE010A10EE900ACA
:101580004861684609F020FF68460AF00FF908B97B
:1015900000BFFEE73548D0F8080100EE100ADFED85
:1015A0003F0A80EE808A3148406900EE100A3C48CC
:1015B000D0ED000A08EE200AF7EE000A78EE200AC5
:1015C00080EE201A80ED001A0068FEF71CFF41EC47
:1015D0001B0BB0EE4B0AF0EE6B0A10F04DFAB0EEBA
:1015E00040AAF0EE60AA9FED2F0B53EC102B51ECAC
:1015F0001A0BFEF71BFF1AD21C48D0F8080100EEA8
:10160000100AF0EE000A80EE801AB0EE418A174808
:10161000406800EE100A60EE080AB7EE000A38EEE5
:10162000001A80EE810A10EE100A104948600F4837
:10163000D0F8080100EE100AF1EE040A80EE801ADC
:10164000B0EE418A0948806800EE100A60EE080A90
:10165000B7EE000A38EE001A80EE810A10EE100A8A
:101660000249886000BF99E600247449981B002055
:1016700077CC2B322C000020C01C0020240000203E
:10168000000000E051B89E3F000000403333E33FCC
:101690002800002000000000F0010020CDCC4C3DCF
:1016A00020000020000000403333D33FF0EE400A1A
:1016B000F5EEC00AF1EE10FA02D2B1EE600A704700
:1016C000B0EE600AFBE7F0EE403AB0EE614A30EE71
:1016D000810AB0EE006AC0EE066AF0EE661A34EED9
:1016E000020AB0EE006AC0EE066AF0EE665A33EE09
:1016F000E10AB4EEE20AF1EE10FA0BD233EEE10A9F
:10170000B1EE626AB4EEC60AF1EE10FA02DDB0EE96
:10171000650A704732EE440A31EE606A36EE626A5C
:1017200036EE626A80EE065AF4EEC13AF1EE10FA35
:1017300002DDF0EE413A06E0F4EEE03AF1EE10FAA6
:1017400001D2F0EE603A33EEE10AB4EEE20AF1EED5
:1017500010FA04DD33EEE20AF0EE403A03E033EE35
:10176000A20AF0EE403A33EEE10A20EE050AF0EE6E
:10177000654A40EE034AB0EE640ACAE710B5104865
:10178000007801280AD104200EF044FD01200D4903
:10179000086002200A490870002010BD084800783F
:1017A00002280AD142F21071074800F0A3F820B1D4
:1017B0000020034908700120EFE70120EDE7000059
:1017C0007001002090824142A08601001CB50121D9
:1017D00008200BF025FF1020009001208DF8040058
:1017E00000208DF8060002208DF8070003208DF8F8
:1017F00005006946044807F07DF9002003490860A8
:1018000000F0F0F81CBD0000000C02409082414244
:1018100010B53648007801280AD104200EF0FAFCF1
:10182000012033490860022030490870002010BDB3
:101830002E48007802280ED14CF25031480000F0BA
:1018400059F800284FD00120294908600320274972
:1018500008700020EBE72548007803280ED14CF2F1
:101860005031480000F046F800283CD001202049C3
:10187000086004201D4908700020D8E71B48007844
:1018800004280DD14CF25031480000F033F850B329
:101890000120174908600520144908700020C6E798
:1018A0001248007805280DD14CF25031480000F064
:1018B00021F8C0B101200E49086006200B490870CC
:1018C0000020B4E70948007806280AD14CF25031CC
:1018D000480000F00FF830B10020044908700120E2
:1018E000A5E70120A3E70020A1E700007001002088
:1018F0009082414270B504460D460B4800680128AD
:1019000008D1214604200EF0F3FB50B10020064917
:10191000086006E0294604200EF0EAFB08B1012029
:1019200070BD0020FCE70000908241420020014988
:10193000086070479082414210B50F480078012836
:101940000AD104200EF066FC01200C490860022038
:1019500009490870002010BD07480078022809D105
:1019600007494800FFF7C6FF20B100200249087070
:101970000120F0E70120EEE7700100209082414253
:10198000A086010010B500241448007828B9002072
:1019900013490870FFF7CAFF1DE0114800780628B8
:1019A00018D2DFE800F01703070B0F1300F038F828
:1019B00004460FE000F070F804460BE0FFF7BCFFB0
:1019C000044607E0FFF724FF044603E0FFF7D6FED6
:1019D000044600BF00BF204610BD0000700100207B
:1019E0007101002010B504460B48007830B914B1DD
:1019F0000120094908700948047009E00748007887
:101A0000A04205D024B101200349087003480470A6
:101A1000FFF7B8FF10BD0000700100207101002029
:101A200010B51A48007801280AD104200EF0F2FB04
:101A3000012017490860022014490870002010BDD9
:101A40001248007802280DD14CF250311148FFF7AE
:101A500051FFC0B101200E49086003200B490870F6
:101A60000020ECE70948007803280AD14CF25031F5
:101A70000848FFF73FFF30B10020044908700120FB
:101A8000DDE70120DBE70020D9E70000700100203E
:101A900090824142F049020010B5194800780128AF
:101AA0000AD104200EF0B6FB01201649086002207E
:101AB00013490870002010BD1148007802280CD18D
:101AC00011490846FFF716FFB8B101200D4908601B
:101AD00003200B4908700020EDE70948007803282F
:101AE00009D109490948FFF705FF30B10020044931
:101AF00008700120DFE70120DDE70020DBE70000C0
:101B00007001002090824142A086010020A10700C0
:101B100010B5FD48807B40B99FEDFC0AFA4880ED86
:101B2000050A9FEDFB0A80ED060AF74890ED060ACC
:101B3000D0ED050A30EE600A80ED240A807B002893
:101B40007ED1FFF7A1FB9FEDF30AEF4880ED1A0A63
:101B50009FEDF10A80ED070A9FEDEF0A80ED080A7C
:101B60000020E949C8739FEDEC0A084680ED180A89
:101B70009FEDEA0A80ED1F0A9FEDE70A80ED1B0A40
:101B8000B2EE040AE64880ED040A9FEDE30A80ED18
:101B9000050A9FEDE10A80ED060A9FEDDF0A80ED60
:101BA000020A9FEDDD0A80ED000A9FEDDB0ADD48A9
:101BB00080ED010A9FEDD80A80ED000AB2EE040A1A
:101BC00080ED040A9FEDD80A80ED050A9FEDD70A43
:101BD00080ED060AB7EE000A80ED020AB2EE040AB2
:101BE000D34880ED040A9FEDCC0A80ED050A9FEDF5
:101BF000CA0A80ED060A9FEDC80A80ED020A9FED31
:101C0000C60A80ED000A9FEDC40ACA4880ED010AA9
:101C10009FEDC10A80ED000AB2EE040A80ED040ACD
:101C20009FEDC10A80ED050A9FEDC00A80ED060A0E
:101C3000B7EE000A80ED020AB2EE040ABE4800E0E8
:101C40003DE080ED040AB0EE080A80ED060AB3EE2E
:101C5000070ABA4880ED040A9FEDB90A80ED050A2B
:101C60009FEDB80A80ED060A9FEDAB0A80ED010AF0
:101C7000B0EE000A80ED020A9FEDB30AB34880ED92
:101C8000040A9FEDB30A80ED050A9FEDA30A80EDDB
:101C9000010A9FEDB00AB04880ED040A9FEDAF0A3B
:101CA000AF4880ED040A9FED9C0A80ED050A9FED88
:101CB000AD0A80ED060A9FED980A80ED020A9FEDBD
:101CC000AA0A974880ED0C0A9FEDA80A80ED090A40
:101CD0009FEDA50A80ED080A9FEDA40A80ED0A0A8F
:101CE000B3EE0E0A80ED110A9FEDA10A80ED100AF5
:101CF0009FEDA00A80ED0D0A9FED9B0A80ED0E0A74
:101D0000012180F895109FED9C0A864880ED0C0A11
:101D10009FED9A0A80ED090A9FED970A80ED080A67
:101D20009FED970A80ED0A0A9FED8F0A80ED110A58
:101D30009FED940A80ED100A9FED930A80ED0D0A45
:101D4000B3EE040A80ED0E0A9FED870A784880ED15
:101D50000C0A9FED860A80ED090A9FED830A80ED4B
:101D6000080A9FED820A80ED0A0AB3EE0E0A80EDA2
:101D7000110A9FED7F0A80ED100A9FED7E0A80ED2B
:101D80000D0A9FED790A80ED0E0A80F895109FEDFF
:101D90007A0A684880ED0C0A9FED780A80ED090AFE
:101DA0009FED750A80ED080A9FED750A80ED0A0A1D
:101DB0009FED6D0A80ED110A9FED720A80ED100A09
:101DC0009FED710A80ED0D0AB3EE040A80ED0E0A54
:101DD0009FED6E0A584880ED0C0A9FED6D0A80ED6C
:101DE000090A9FED6C0A80ED080A9FED680A80EDF4
:101DF0000A0A9FED690A80ED0E0A80F8951001200D
:101E00004D4981F894009FED5C0A4C4880ED0C0A26
:101E10009FED5A0A80ED090A9FED570A80ED080AE6
:101E20009FED570A80ED0A0A9FED580A80ED110ACE
:101E30009FED590A80ED100A9FED560A80ED0D0ABC
:101E40009FED530A80ED0E0A9FED4B0A3F4880ED4F
:101E50000C0A9FED520A80ED090A9FED470A80EDBA
:101E6000080A9FED4F0A80ED0A0AB1EE040A80EDE0
:101E7000110AB1EE0E0A80ED100AB2EE040A80EDEE
:101E80000D0AB1EE040A80ED0E0AB1EE040A3248E2
:101E900080ED0C0AB0EE040A80ED090AB1EE040AE6
:101EA00080ED080AB0EE040A80ED0A0AB1EE040AD9
:101EB00080ED0E0A012180F89510294880F89510D0
:101EC00001201149087400204871087301204873EB
:101ED00000204870886008718870C87001204874BC
:101EE00000208874087008858884C8844885C8855F
:101EF00088859FED090A084680ED100A9FED060AC5
:101F000080ED110A4EE00000F0010020AE47613E76
:101F10005C8FC23E00002045000000000000964398
:101F20008802002020030020A69B443C000034428D
:101F3000B803002050040020E804002080050020A1
:101F4000CDCCCC3D0000A042CD4CC34318060020B0
:101F500000009C416666464048070020CDCCCC3F3F
:101F6000B00600209A99993E000048430000C842FC
:101F700000001C420000704200401C460000FA4471
:101F800000803B45000082430000C8435555854210
:101F900055550542555505435455AD4200C0DA45E7
:101FA00000409C451FED240A80ED0C0A1FED260A17
:101FB00080ED0E0A1FED280A80ED1C0A1FED2A0A8B
:101FC00080ED1D0A1FED2C0A80ED1E0A1FED2E0A62
:101FD00080ED130A1FED300A80ED120A1FED320A60
:101FE00080ED200A1FED340A80ED210A1FED360A2C
:101FF00080ED220A1FED380A80ED230A0020C1F887
:10200000940010BD2DE9F0412DED028B82B0044605
:102010000F46904661684943880010F069FB054609
:10202000D4E900125143880010F062FB064605B166
:102030005EB9304610F014FA284610F011FA00206C
:1020400002B0BDEC028BBDE8F081206800903A46FA
:1020500028466368616909F085FE63681A46284668
:10206000E16909F0C4FE284661680AF0B9F8B0EEEB
:10207000408AB5EEC08AF1EE10FA02DDB0EE480AF1
:1020800001E0B1EE480ADFED150AB4EEE00AF1EE28
:1020900010FA07D2304610F0E3F9284610F0E0F9C4
:1020A0000020CDE7D4E90001CDE9000139463046F2
:1020B0002368626909F016FE6068009001902A4664
:1020C0003146404623680AF051FA304610F0C8F90C
:1020D000284610F0C5F90120B2E700002EAD5405E6
:1020E0007A48808CA0F5006000EE100AB8EEC00AB5
:1020F000F3EE0E0A20EE200ADFED750A80EE201ABC
:10210000724880ED0C1A808CA0F5006000EE100A79
:10211000B8EEC00ADFED6F0A20EE200ADFED6C0A90
:1021200080EE201A694880ED0D1AC08CA0F5006081
:1021300000EE100AB8EEC00AF3EE0E0A20EE200AF6
:10214000DFED630A80EE201A604880ED0E1AC08C25
:10215000A0F5006000EE100AB8EEC00ADFED5D0ADF
:1021600020EE200ADFED5A0A80EE201A574880ED53
:102170000F1A808DA0F5006000EE100AB8EEC00ABC
:10218000F7EE080A20EE200ADFED510A80EE201A51
:102190004E4880ED161A808DA0F5006000EE100A02
:1021A000B8EEC00AF1EE040A20EE200ADFED480A7C
:1021B00080EE201A454880ED191A408D00EE100A75
:1021C000B8EE400ADFED440A60EE200A9FED431AA4
:1021D00080EE810A3D48D0ED050A30EE200A80ED00
:1021E0001C0A408D282805DA9FED3D0A374880ED0E
:1021F0001D0A1CE03548408D40F6D771884205DD48
:102200009FED380A314880ED1D0A10E02F48408DBF
:1022100000EE100AB8EE400ADFED320A20EE200A86
:10222000DFED2E0A80EE201A284880ED1D1A27487F
:10223000C08DA0F5006000EE100AB8EEC00ADFED18
:102240002A0A20EE200ADFED220A80EE201A1F481B
:1022500080ED151A808DA0F5006000EE100AB8EE32
:10226000C00ADFED210A20EE200ADFED190A80EE18
:10227000201A164880ED141A007B98B11348C08DBF
:10228000A0F5006000EE100AB8EEC00ADFED160AF5
:1022900020EE200ADFED0E0A80EE201A0B4880EDBA
:1022A000101A12E00948008DA0F5006000EE100A37
:1022B000B8EEC00ADFED0C0A20EE200ADFED040ABA
:1022C00080EE201A014880ED101A7047F0010020BE
:1022D000000000450000484300401C4600F07F45D8
:1022E000000000000000C8425555854210B51B484B
:1022F0000AF046FD1A480AF043FD1A480AF040FD6C
:1023000019480AF03DFD19480AF03AFD18480AF04C
:1023100037FD18480AF07CFD17480AF079FD174888
:102320000AF02EFDBEEE000A144880ED120A9FED61
:10233000140A144880ED200A9FED110A80ED210A4D
:102340009FED0F0A80ED220A9FED0D0A80ED230A12
:102350009FED0B0A80ED1E0A10BD000088020020D0
:1023600020030020B803002050040020E8040020CF
:10237000800500201806002048070020B006002035
:1023800000000000F001002010B500F023FF09F06C
:1023900031F807F03DFC0EF071FC0BF049F80BF042
:1023A00003FA10BD21B1026842F00102026003E0AD
:1023B000026822F0010202607047014600200A68AC
:1023C00002F001020AB1012000E00020704701463E
:1023D000486880B27047000010B500220268134BB5
:1023E0001A40CC680B6823434C6923438C69234310
:1023F000CC6923430C6A23434C6A23438C6A2343EE
:102400004C6B23438C6B23431A430260426922F0D6
:102410000702D1E90B3423431A4342610B6943603D
:102420004B6883608B68C36010BD00003F801CF068
:10243000416070472DE9F04704464FF00008002541
:1024400000270026A946AA46B4F80E80258A4545ED
:1024500003DDA08940441FFA80F8E81D804502DAB8
:102460000020BDE8F087A1E0A189284607F04AF8DE
:10247000A168085C5A287CD1A189AA1C90B207F0F7
:1024800041F8A1680E5CA1896A1C90B207F03AF885
:10249000A16811F8009009F0800010B106EB8600E9
:1024A00086B26088B04208DAA1896A1C90B207F04F
:1024B00029F82082681C85B278E0A819401D4045A3
:1024C00013DAA189AA19121D90B207F01BF8A168AE
:1024D000085C0D2809D1A189AA19521D90B207F0F4
:1024E00011F8A168085C0A280ED0A819401D4045C3
:1024F00001DB0020B5E7A1896A1C90B207F002F861
:102500002082681C85B251E000270BE0A189EA19FE
:1025100090B206F0F7FFA168085C504400F0FF0A93
:10252000781C87B2F01C8742F0DBA189AA19D21C63
:1025300090B206F0E7FFA168085C504508D0A18979
:10254000AA19921D90B206F0DDFF2082002088E7D4
:1025500000270BE0A189EA19D21C90B206F0D2FF45
:10256000A168085C6168C855781C87B2B742F1DB86
:1025700000E012E084F80090A189AA1C90B206F055
:10258000C1FFA168085C6070A189AA19921D90B270
:1025900006F0B8FF2082012063E7A1896A1C90B28F
:1025A00006F0B0FF2082681C85B200BFE81D8045A0
:1025B000BFF65AAF002054E770B5FEB004464FF4A2
:1025C000FA7101A8FDF715FE00256069FFF7FFFE0F
:1025D000A189081A86B2A089B04202DCA089301A0B
:1025E00086B2E68101A860602046FFF723FF10B99C
:1025F00000207EB070BDCF4884427BD1207800F0AF
:10260000800000285DD12078642838D160780C28BB
:1026100035D1C9488068401CC74988609DF80400CE
:102620009DF8051000EB0120C34908859DF80600C0
:102630009DF8071000EB0120BF4988849DF8080031
:102640009DF8091000EB0120BB49C8849DF80A00E1
:102650009DF80B1000EB0120B74948859DF80C0050
:102660009DF80D1000EB0120B349C8859DF80E00C0
:102670009DF80F1000EB0120AF49888558E12078C4
:10268000652813D16078042810D19DF804109DF8B6
:10269000052001EB02219DF8062001EB02419DF887
:1026A000072001EB02600DF00BFC41E12078662869
:1026B000E4D160780128E1D19DF8040009F0F8F830
:1026C00036E10520FFF78EF92078FF2813D16078D6
:1026D000012810D19DF8040068B99DF805009649BD
:1026E00048740846407C0028C8D0FFF7FFFD0CF076
:1026F000D7FA1DE140E02078E42825D101A88F49D0
:102700004860607800EB80004880607848708020E6
:102710000870084600F0CAFC9DF80400884908705B
:102720009DF805109DF8062001EB02219DF8072079
:1027300001EB02419DF8082001EB026001F05BFC17
:102740007F4880ED010AF3E02078E52804D19DF868
:1027500004000BF021F9EBE02078802804D16178A7
:1027600001A80CF041FBE3E02078812886D1617854
:1027700001A806F0D5FEDBE07248844295D160786E
:10278000182868D12078002865D19DF804009DF8AC
:10279000051000EB012528B26B4988819DF80600E1
:1027A0009DF8071000EB012528B26749C8819DF804
:1027B00008009DF8091000EB012528B26249088243
:1027C0009DF80A009DF80B1000EB012528B25E4928
:1027D00048829DF80C009DF80D1000EB012528B2F1
:1027E000594988829DF80E009DF80F1000EB0125D5
:1027F00028B25549C8829DF810009DF8111000EBD1
:1028000001209DF8121000EB01409DF8131000EB21
:102810000165284601F0EFFB4B4880ED150A9DF855
:1028200016009DF8171000EB012528B246490883D1
:102830009DF818009DF8191000EB012528B24249B7
:1028400048839DF81A009DF81B1000EB012528B263
:102850003D4988836CE06078152869D1207801288B
:1028600066D19DF804009DF8051000EB01209DF84D
:10287000061000EB01409DF8071000EB01652846AB
:1028800001F0B9FB314880ED000A9DF808009DF881
:10289000091000EB01209DF80A1000EB01409DF8A3
:1028A0000B1000EB0165284601F0A5FB274880EDE1
:1028B000010A9DF80C009DF80D1000EB01209DF819
:1028C0000E1000EB01409DF80F1000EB016528464B
:1028D00001F091FB1D4880ED020A9DF810009DF863
:1028E000111000EB01209DF8121000EB01409DF843
:1028F000131000EB0165284601F07DFB134880EDC5
:10290000030A9DF814009DF8151000EB01209DF8B6
:10291000161000EB01409DF8171000EB01652846EA
:1029200001F069FB094880ED040A9DF8185005750F
:1029300001205EE6301B0020F00100207C1B0020FF
:1029400030000020481B0020C01C0020181D002063
:10295000002023494880234888604FF4FA6088812A
:1029600000204870087048600882C8811E4848618D
:102970000020088348834FF4FA701C4948801C48A3
:1029800088604FF4FA6088810020487008700882DF
:10299000C8811548303848610020164948801648DB
:1029A00088604FF4967088810020487008704860F5
:1029B0000882C88111484861002008834883182094
:1029C0000F4948800F4888604FF4FA7088810020D2
:1029D000487008700882C8810848183848617047F4
:1029E000601B002070080020B8640240301B0020EB
:1029F000401000207C1B002010180020A060024026
:102A0000481B00203C19002030B595B005465021E8
:102A100001A8FDF7EEFB0024F24885427ED1F24882
:102A2000D0ED000AB0EE600A0120DFEDF00A06F0FA
:102A300023F80446E0B28DF80400200A8DF8050062
:102A4000E948D0ED010AEA4890ED071A70EEC10A94
:102A5000B0EE600A0120DFEDE50A06F00DF804464D
:102A6000E0B28DF80600200A8DF80700DE48D0EDB0
:102A7000020ADF4890ED081A70EEC10AB0EE600A53
:102A80000120DFEDDA0A05F0F7FF0446E0B28DF829
:102A90000800200A8DF80900D348D0ED0B0AB0EEEB
:102AA000600A0120DFEDD30A05F0E6FF0446E0B23C
:102AB0008DF80A00200A8DF80B00CB48D0ED0C0AE7
:102AC000B0EE600A0120DFEDCB0A05F0D5FF044629
:102AD000E0B28DF80C00200A8DF80D00C248D0ED50
:102AE0000D0AB0EE600A0120DFEDC20A05F0C4FF56
:102AF0000446E0B28DF80E00200A8DF80F00BE48A3
:102B0000D0ED120AB0EE600A0120DFEDB80A05F040
:102B1000B3FF0446E0B28DF8100000E05DE1200A4A
:102B20008DF81100B548D0ED120AB0EE600A012010
:102B3000DFEDAE0A05F0A0FF0446E0B28DF812000A
:102B4000200A8DF81300AE48D0ED120AB0EE600AEC
:102B50000120DFEDA60A05F08FFF0446E0B28DF8F4
:102B60001400200A8DF81500A648D0ED120AB0EE28
:102B7000600A0120DFED9F0A05F07EFF0446E0B207
:102B80008DF81600200A8DF817009F48D0ED120A24
:102B9000B0EE600A0120DFED970A05F06DFF0446F4
:102BA000E0B28DF81800200A8DF819009748D0ED92
:102BB000120AB0EE600A0120DFED8E0A05F05CFF1C
:102BC0000446E0B28DF81A00200A8DF81B008848F0
:102BD000407CD0B18648007B03280ED18C48006829
:102BE00000EE900A824890ED171A70EEC10AB0EE1E
:102BF000600A01F0FDF9044615E08548006800EE22
:102C0000100A01F0F5F904460DE08148006800EE75
:102C1000900A774890ED171A70EEC10AB0EE600A7C
:102C200001F0E6F90446E0B28DF81C00200A8DF8A8
:102C30001D00200C8DF81E00200E8DF81F006A4824
:102C4000D0ED110AB0EE600A0120DFED720A05F046
:102C500013FF0446E0B28DF82000200A8DF8210011
:102C60006148D0ED120AB0EE600A0120DFED690A7A
:102C700005F002FF0446E0B28DF82200200A8DF82C
:102C800023005B48407C58B15748D0ED130AB0EEA2
:102C9000600A0120DFED5F0A05F0EEFE04460AE05F
:102CA0005D48D0ED180AB0EE600A0120DFED590A48
:102CB00005F0E2FE0446E0B28DF82400200A8DF80B
:102CC00025004B48448DE0B28DF82600200A8DF88F
:102CD00027004748D0ED1E0AB0EE600A0020DFED65
:102CE0004F0A05F0C9FE0446E0B28DF82800200A1C
:102CF0008DF829004A48D0ED120AB0EE600A01F0C2
:102D000077F90446E0B28DF82A00200A8DF82B00EE
:102D1000200C8DF82C00200E8DF82D004148D0EDB0
:102D2000180AB0EE600A0120F0EE000A05F0A4FED9
:102D30000446E0B28DF82E00200A8DF82F003948A5
:102D4000D0ED120AB0EE600A0120F0EE000A05F0A4
:102D500093FE0446E0B28DF83000200A8DF8310071
:102D60002D48D0ED120AB0EE600A0120F2EE040AFE
:102D700005F082FE0446E0B28DF83200200A8DF89C
:102D800033001B48407C40B11748D0ED150AB0EE27
:102D9000600A01F02DF904460CE01348D0ED150A45
:102DA000134890ED171A70EEC10AB0EE600A01F0F8
:102DB0001FF90446E0B28DF83400200A8DF8350082
:102DC000200C8DF83600200E8DF8370001A86860C1
:102DD00034206880687000202870284600F066F96A
:102DE00015B030BD601B0020C01C00200000344323
:102DF000F00100200000FA44E804002088020020CE
:102E0000B80300205004002020030020800500208B
:102E1000981B002039B41C421806002000401C46B4
:102E2000B0060020480700202DE9F041E6B0054635
:102E30000E4690461F460024502F03DD002066B04A
:102E4000BDE8F081002426E018F8040004EB8401BA
:102E50000DF8010016F8241004EB8400401C0DF856
:102E6000001006EB8400417804EB8400801C0DF810
:102E7000001006EB8400817804EB8400C01C0DF880
:102E8000001006EB8400C17804EB8400001D0DF8EF
:102E90000010601C84B2BC42D6DBC5F804D007EB3E
:102EA000870068806F7080202870284600F0FEF848
:102EB000C5E7000070B504460025208AE1898842F4
:102EC00002D10020608370BD6069FFF780FA05467B
:102ED00055B1208B618B0844451BA089A84201D8BD
:102EE000A0892D1A2582EEE7208B618B4518A089D9
:102EF000A84201D8A0892D1A258300206083E0898B
:102F0000218B884204DAA089218B401A608303E078
:102F1000E089218B401A608300216069FFF742FA43
:102F200000BF6069FFF749FA0028FAD15A49606981
:102F3000884204D13D205849103988609BE05649A9
:102F400018316069884205D14FF4746052491039D4
:102F5000886090E0504930316069884205D14FF473
:102F600074104D491039886085E04B4948316069DB
:102F7000884205D14FF074604749103988607AE083
:102F8000454960316069884204D14448424910395A
:102F9000C86070E0404978316069884204D1404897
:102FA0003D491039C86066E03B499031606988420C
:102FB00004D13C4838491039C8605CE03649A83132
:102FC0006069884205D14FF03D5033491039C860DF
:102FD00051E035496069884204D13D2032490839C1
:102FE000086048E0304918316069884205D14FF4E3
:102FF00074602D49083908603DE02B493031606923
:10300000884205D14FF4741027490839086032E02E
:10301000254948316069884205D14FF074602249E2
:103020000839086027E0204960316069884204D18E
:103030001A481D49091F08601DE01B497831606965
:10304000884204D116481849091F086013E0164940
:1030500090316069884204D112481349091F086001
:1030600009E01149A8316069884204D14FF03D5010
:103070000D49091F0860618B6069FFF7D9F9218B41
:10308000A06808446169C86001216069FFF78AF996
:10309000258200BF17E70000106002403D000020BD
:1030A000400F002000003D20106402402DE9F04751
:1030B000044600260027B246B1460025A8462078DF
:1030C00000F0800060B1607800EB80066088B0425C
:1030D00003D1A189B01D81420CDA0020BDE8F08740
:1030E00066786088B04203D1A189B01D814201DABF
:1030F0000020F3E7B4F81090E589A94505DCA08924
:10310000401B48441FFA80FA03E0A9EB05001FFAB0
:1031100080FA6088801D504501DD0020DEE7A1892E
:10312000284606F0EFF95A22A1680A549046A18970
:103130006A1C90B206F0E6F92278A1680A54207859
:10314000404400F0FF08A189AA1C90B206F0DAF909
:103150006278A1680A546078404400F0FF080027B4
:1031600010E0A189EA19D21C90B206F0CBF9D4E99B
:103170000121D25D0A546068C05D404400F0FF0840
:10318000781C87B2B742ECDBA189AA19D21C90B295
:1031900006F0B8F9A16801F80080A189AA19121DEA
:1031A00090B206F0AFF90D22A1680A54A189AA19BC
:1031B000521D90B206F0A6F90A22A1680A54A1890C
:1031C00062882A44921D90B206F09CF9E0810120A9
:1031D00084E7000010B55848D0ED0C0AB0EE600A44
:1031E000B7EE003AF6EE002AB3EE0E2AFBEE0E1A08
:1031F000B3EE0E1AFBEE0E0AFEF765FA4F4880EDAD
:10320000000A4D48D0ED0D0AB0EE600AB7EE003A64
:10321000F0EE002A9FED4A2ADFED4A1A9FED481A88
:10322000DFED480AFEF74FFA474880ED000A4248B2
:10323000D0ED0E0AB0EE600AB7EE003AF6EE002AC4
:10324000B3EE0E2AFBEE0E1AB3EE0E1AFBEE0E0ACA
:10325000FEF739FA3D4880ED000A3748D0ED0F0AF5
:10326000B0EE600AB7EE003AF0EE002A9FED342A85
:10327000DFED341A9FED321ADFED320AFEF723FA42
:10328000334880ED000A2C48D0ED100AB0EE600AF9
:10329000B7EE003AF2EE042A9FED2E2ADFED2E1A49
:1032A0009FED2C1ADFED2C0AFEF70DFA2B4880ED6E
:1032B000000A2148D0ED160AB0EE600AB7EE003AD7
:1032C000DFED272AB7EE082AFFEE081AB7EE081A34
:1032D000FFEE080AFEF7F7F9224880ED000A1648CB
:1032E000D0ED190AB0EE600AB7EE003ADFED1E2A03
:1032F000B1EE042AF9EE041AB1EE041AF9EE040A4A
:10330000FEF7E1F9194880ED000A0B48407820B932
:103310009FED170A134880ED000A0748407C50B122
:103320001448006800EE100A034880ED170A9FED6C
:10333000100A80ED1E0A10BDF00100207801002067
:1033400000004843000048C3840100207C010020A5
:103350008801002055558542555585C280010020C1
:103360008FC2F53C8C010020CDCCCC3D90010020DB
:1033700000000000981B00201E4901F5E151B0F546
:10338000967F01DA002800DA70471B4A1278A2B152
:1033900000EB400201EB820282ED000A00EB4002EA
:1033A000521C01EB8202C2ED000A00EB4002921CAB
:1033B00001EB820282ED001A12E000EBC0020D4B1D
:1033C00003EB820282ED060A00EBC00203EB8202ED
:1033D000C2ED070A00EBC00203EB820282ED081A7D
:1033E000421C064B1B689A4201DD044B1A6000BF69
:1033F000CAE7000048700020D0010020CC01002066
:103400002DE9F0412DED108BC2B0044688461746D9
:103410001E4694ED000AF0EE409A94ED010AB0EEDB
:1034200040AA94ED020AF0EE40AA94ED030AB0EE31
:10343000408A94ED040AF0EE408A94ED050AB0EE5D
:10344000409A94ED060AB0EE40BA94ED070AF0EE09
:1034500040BA94ED080AB0EE40DA94ED090A8DED19
:10346000410A39EE8A0A30EE2A0AF0EE40DA29EEF5
:103470008A0A0AEE2A0A09EEAA0A08EE480A08EEA3
:10348000E80A09EE490A8DED400ACDED2E9A8DED40
:103490002F8ACDED308A8DED318A8DED32AA8DEDFA
:1034A000339ACDED348A8DED359ACDED36AA0321D0
:1034B0002EA808F0F3FD8DED3F0ACDED2E9A8DED8F
:1034C0002F8ACDED308A8DED31BA8DED328A8DEDBA
:1034D00033AA8DED349ACDED35BACDED368A8DED2A
:1034E000379ACDED38AA8DED39DA8DED3ABACDEDBA
:1034F0003BBA8DED3CDA9DED410A8DED3D0A04218C
:103500002EA808F0CBFD8DED3E0AF5EEC0DAF1EE07
:1035100010FA16D09DED400AB5EEC00AF1EE10FA91
:103520000FD99DED3F0A2DEE800AB5EEC00AF1EEEF
:1035300010FA06D99DED3E0AB5EEC00AF1EE10FA7A
:1035400005DB002042B0BDEC108BBDE8F08194EDAE
:10355000030AF0EE000A20EE200A84ED030A94ED3F
:10356000040AF0EE000A20EE200A84ED040A94ED2D
:10357000050AF0EE000A20EE200A84ED050A94ED1B
:10358000060AF0EE000A20EE200A84ED060A94ED09
:10359000070AF0EE000A20EE200A84ED070A94EDF7
:1035A000080AF0EE000A20EE200A84ED080A94EDE5
:1035B000000AFE48D0ED000A20EE200AD0ED000AF5
:1035C00020EE200AFA48D0ED000A20EE200AD0EDC5
:1035D000000A20EE200A8DED240A94ED010AF54838
:1035E000D0ED000A20EE200AD0ED000A20EE200ADD
:1035F000EF48D0ED000A20EE200AD0ED000A20EEC0
:10360000200A8DED250A94ED020AEA48D0ED000A61
:1036100020EE200AD0ED000A20EE200AE348D0ED8B
:10362000000A20EE200AD0ED000A20EE200A8DEDDF
:10363000260A94ED030ADF48D0ED000A20EE200AA6
:10364000DA48D0ED000A20EE200AD948D0ED000A71
:1036500020EE200AD0ED000A20EE200A8DED270A88
:1036600094ED040AD348D0ED000A20EE200ACF489A
:10367000D0ED000A20EE200AD0ED000A20EE200A4C
:10368000CB48D0ED000A20EE200A8DED280A94EDFB
:10369000050AC848D0ED000A20EE200AD0ED000A45
:1036A00020EE200AC148D0ED000A20EE200AC048D2
:1036B000D0ED000A20EE200A8DED290A94ED000AD3
:1036C000F8EE000A20EE200AB848D0ED000A20EEFD
:1036D000200AD0ED000A20EE200AB548D0ED000AFD
:1036E00020EE200AD0ED000A20EE200AB248D0EDEC
:1036F000000A20EE200AD4ED030AAE4890ED001A2D
:1037000060EE810AA94890ED001A60EE810AA8488F
:1037100090ED001A60EE810A90ED001A60EE810AC9
:10372000A64890ED001A00EEC10AD4ED040AA148A3
:1037300090ED001A60EE810A9C4890ED001A60EE50
:10374000810A90ED001A60EE810A994890ED001A06
:1037500060EE810A9A4890ED001A00EEC10AD4ED9D
:10376000060A944890ED001A60EE810A8F4890EDA9
:10377000001A60EE810A90ED001A60EE810A8C4812
:1037800090ED001A60EE810A90ED001A00EE810AB9
:103790008DED2A0A94ED010AF8EE000A20EE200AC7
:1037A0008448D0ED000A20EE200AD0ED000A20EE79
:1037B000200A7F48D0ED000A20EE200AD0ED000A52
:1037C00020EE200A7D48D0ED000A20EE200AD4ED3C
:1037D000030A784890ED001A60EE810A734890ED74
:1037E000001A60EE810A724890ED001A60EE810ABC
:1037F00090ED001A60EE810A6F4890ED001A00EE1D
:10380000C10AD4ED050A6B4890ED001A60EE810AFA
:1038100090ED001A60EE810A644890ED001A60EEA7
:10382000810A634890ED001A60EE810A644890EDC9
:10383000001A00EEC10AD4ED070A5E4890ED001AA6
:1038400060EE810A90ED001A60EE810A574890ED13
:10385000001A60EE810A564890ED001A60EE810A67
:1038600090ED001A00EE810A8DED2B0A94ED020A0C
:10387000F8EE000A20EE200A4E48D0ED000A20EEB5
:10388000200AD0ED000A20EE200A4848D0ED000AB8
:1038900020EE200AD0ED000A20EE200A4848D0EDA4
:1038A000000A20EE200AD4ED040A424890ED001AE6
:1038B00060EE810A3D4890ED001A60EE810A90EDBD
:1038C000001A60EE810A3A4890ED001A60EE810A13
:1038D000394890ED001A00EEC10AD4ED050A3548CA
:1038E00090ED001A60EE810A90ED001A60EE810AF8
:1038F0002E4890ED001A60EE810A2D4890ED001AD6
:1039000060EE810A2D4890ED001A00EEC10AD4ED58
:10391000080A284890ED001A60EE810A90ED001A1E
:1039200060EE810A214890ED001A60EE810A90ED68
:10393000001A60EE810A1E4890ED001A00EE810A1E
:103940008DED2C0A94ED000A1848D0ED000A20EE07
:10395000200AD0ED000A20EE200A1548D0ED000A1A
:1039600020EE200AD0ED000A20EE200A1248D0ED09
:10397000000A20EE200AD0ED000A20EE200AD4ED45
:10398000010A0C4890ED001A60EE810A90ED001AD1
:1039900060EE810A064890ED001A60EE810A90ED13
:1039A000001A60EE810A05480CE00000D8010020F2
:1039B000DC010020D4010020E0010020E40100200F
:1039C000E801002090ED001A60EE810A90ED001AE7
:1039D00000EE810AD4ED020AFE4890ED001A60EE76
:1039E000810A90ED001A60EE810AFB4890ED001A02
:1039F00060EE810A90ED001A60EE810AF74890EDC2
:103A0000001A60EE810A90ED001A00EE810AD4EDF2
:103A1000030AF04890ED001A60EE810AEE4890ED3E
:103A2000001A60EE810AEE4890ED001A60EE810AFD
:103A300090ED001A60EE810AEA4890ED001A60EEFF
:103A4000810AE94890ED001A00EE810AD4ED040ADB
:103A5000E04890ED001A60EE810ADF4890ED001A10
:103A600060EE810A90ED001A60EE810ADC4890ED6C
:103A7000001A60EE810ADB4890ED001A60EE810AC0
:103A8000D64890ED001A00EE810AD4ED050AD1481F
:103A900090ED001A60EE810A90ED001A60EE810A46
:103AA000CD4890ED001A60EE810ACD4890ED001AE5
:103AB00060EE810ACC4890ED001A60EE810AC7489A
:103AC00090ED001A00EE810AD4ED060AC14890ED8F
:103AD000001A60EE810AC04890ED001A60EE810A7B
:103AE00090ED001A60EE810ABD4890ED001A60EE7C
:103AF000810A90ED001A60EE810ABA4890ED001A32
:103B000000EEC10AD4ED070AB24890ED001A60EE4B
:103B1000810A90ED001A60EE810AAF4890ED001A1C
:103B200060EE810AAE4890ED001A60EE810A90EDD9
:103B3000001A60EE810AAC4890ED001A00EEC10A4E
:103B4000D4ED080AA34890ED001A60EE810A90EDCA
:103B5000001A60EE810AA04890ED001A60EE810A1A
:103B600090ED001A60EE810A9D4890ED001A60EE1B
:103B7000810A9A4890ED001A00EEC10AD4ED090AB4
:103B8000944890ED001A60EE810A90ED001A60EE04
:103B9000810A914890ED001A60EE810A90ED001ABA
:103BA00060EE810A8E4890ED001A60EE810A90ED79
:103BB000001A00EE810A8DED2D0A002509E024A8E7
:103BC00000EB850090ED000A04EB850080ED000A13
:103BD0006D1C0A2DF3DB94ED030AF0EE000A80EE73
:103BE000201A84ED031A94ED040AF0EE000A80EE28
:103BF000201A84ED041A94ED050AF0EE000A80EE16
:103C0000201A84ED051A94ED060AF0EE000A80EE03
:103C1000201A84ED061A94ED070AF0EE000A80EEF1
:103C2000201A84ED071A94ED080AF0EE000A80EEDF
:103C3000201A84ED081A94ED000A8DED1B0A94ED0C
:103C4000030A8DED1C0A94ED040A8DED1D0A94ED16
:103C5000030A8DED1E0A94ED010A8DED1F0A94ED05
:103C6000050A8DED200A94ED040A8DED210A94EDEC
:103C7000050A8DED220A94ED020A8DED230A002536
:103C80000AE01BA800EB850090ED000A2EA800EBCF
:103C9000850080ED000A6D1C092DF2DB94ED060A0B
:103CA0008DED180A94ED070A8DED190A94ED080AB6
:103CB0008DED1A0A03212EA808F092FAB0EE40CA40
:103CC000FCF719FEDFED490AB4EEE00AF1EE10FA56
:103CD00001D2002036E400250CE02EA800EB850080
:103CE00090ED000AB1EE400A2EA800EB850080EDB1
:103CF000000A6D1C092DF0DB012003210B4618AAD8
:103D0000CDE900102EA902A808F030FC032002AB78
:103D10001BAA02A9009017A808F0B4FC94ED090AA8
:103D2000DDED170A30EEC00A8DED170A00250DE013
:103D30001BA800EB850090ED000ADDED170A80EE70
:103D4000201A08EB850080ED001A6D1C092DEFDBB1
:103D5000032305AA0EA9404608F074F80025B7E031
:103D600005EB450005A901EB800000EB850090ED17
:103D7000000AB5EEC00AF1EE10FA01D80020A9E75A
:103D800005EB450005AA02EB800000EB850090EDF5
:103D9000000A10EE101A0846FCF735FB41EC1C0B2C
:103DA000B0EE4C0AF0EE6C0A0DF0D6FE8DED000B75
:103DB0000EA800EB850090ED000A10EE101A0846E0
:103DC000FCF721FB41EC1E0B9DED000B53EC102B7F
:103DD0000EE00000D4010020D8010020E8010020FE
:103DE000DC010020E0010020E40100202EAD54059C
:103DF000FCF77CFA41EC1F0BFCF748FB0EA941F8DD
:103E0000250005EB450005AA02EB800000EB8500CC
:103E100090ED000A10EE101A0846FCF7F4FA41EC97
:103E20001C0BB0EE4C0AF0EE6C0A0DF095FE8DED19
:103E3000000B11A800EB850090ED000A10EE101A9F
:103E40000846FCF7E0FA41EC1E0B9DED000B53EC2D
:103E5000102BFCF74BFA41EC1F0BFCF717FB11A9D9
:103E600041F8250005EB450005AA02EB800000EBB8
:103E7000850090ED000A10EE101A0846FCF7C3FA10
:103E800041EC1C0BB0EE4C0AF0EE6C0A0DF064FE37
:103E9000B0EE40EAF0EE60EA14A800EB850090ED89
:103EA000000A10EE101A0846FCF7ADFA53EC1E2B70
:103EB000CDE900019DED000B51EC100BFCF716FA5B
:103EC00041EC1F0BFCF7E2FA14A941F825006D1C28
:103ED000032DFFF645AF03210EA808F081F9B0EEDF
:103EE00040CAFCF708FD5FED3F0AB4EEE00AF1EED0
:103EF00010FA01D20020EDE69DED0E0A86ED000AD3
:103F00009DED0F0A86ED010A9DED100A86ED020A6D
:103F10009DED110A86ED030A9DED120A86ED040A55
:103F20009DED130A86ED050A9DED140A86ED060A3D
:103F30009DED150A86ED070A9DED160A86ED080A25
:103F40009DED020A87ED000A9DED030A87ED010A47
:103F50009DED040A87ED020A0120BBE670B5044618
:103F60000D4616460B480068062801DA002070BD91
:103F700004F0D6F90848007828B132462946204690
:103F800004F03EF8F3E732462946204604F0F4F800
:103F9000EDE70000CC010020D001002001490860BD
:103FA000704700000C3C024008201049096801F4E9
:103FB0008031B1F5803F01D1012015E00B4909683E
:103FC00001F0100109B105200EE00849096801F06F
:103FD000EF0109B1062007E00449096801F0020178
:103FE00009B1072000E00820704700000C3C0240A7
:103FF00010EE100A704700EE100A704770477047C5
:1040000000000000000000000000000000000000B0
:1040100000000000000000000000000000000000A0
:104020000000000000000000000000000000000090
:104030000000000000000000000000000000000080
:108000002DE9F0478CB0804689469246564D05F5DD
:10801000E15656480768062F03DA00200CB0BDE889
:10802000F087002470E004EB440006EB800090ED44
:10803000000A20EE000A04EB4400002101EB40009E
:1080400005EB800080ED000A04EB4400401C06EBC9
:10805000800090ED000A20EE000A04EB44000121AC
:1080600001EB400005EB800080ED000A04EB4400CA
:10807000801C06EB800090ED000A20EE000A04EB65
:108080004400022101EB400005EB800080ED000A76
:1080900004EB440006EB800090ED000AF0EE000ACD
:1080A00020EE200A04EB4400032101EB400005EB25
:1080B000800080ED000A04EB4400401C06EB8000C9
:1080C00090ED000AF0EE000A20EE200A04EB4400D6
:1080D000042101EB400005EB800080ED000A04EB79
:1080E0004400801C06EB800090ED000AF0EE000AD0
:1080F00020EE200A04EB4400052101EB400005EBD3
:10810000800080ED000A641CBC428CDB06203B46EC
:1081100002AA17490090284604F0A2F908B90020E5
:108120007CE79DED050A8DED080A9DED060A8DEDB3
:10813000090A9DED070A8DED0A0A9FED0E0A8DEDE5
:10814000050A9FED0C0A8DED060A9FED0A0A8DEDDA
:10815000070AB7EE000A8DED0B0A53464A46414620
:1081600002A8FBF74DF959E748700020CC01002028
:10817000789A0020000000002DE9F0418CB00646FE
:108180000F46904663480568092D03DA00200CB0BD
:10819000BDE8F0810024A3E004EBC4005E4901EBDC
:1081A000800090ED060A20EE000A04EBC40001EB0B
:1081B000800080ED000A04EBC40001EB800090ED2C
:1081C000070A20EE000A04EBC40001EB800080EDFA
:1081D000010A04EBC40001EB800090ED080A20EED8
:1081E000000A04EBC40001EB800080ED020A04EBFE
:1081F000C40001EB800090ED060A04EBC40001EB23
:108200008000D0ED070A20EE200AF0EE000A20EEF2
:10821000200A04EBC40001EB800080ED030A04EBAC
:10822000C40001EB800090ED060A04EBC40001EBF2
:108230008000D0ED080A20EE200AF0EE000A20EEC1
:10824000200A04EBC40001EB800080ED040A04EB7B
:10825000C40001EB800090ED070A04EBC40001EBC1
:108260008000D0ED080A20EE200AF0EE000A20EE91
:10827000200A04EBC40001EB800080ED050A04EB4A
:10828000C40001EB800090ED060AF0EE000A20EE3B
:10829000200A04EBC40001EB800080ED060A04EB29
:1082A000C40001EB800090ED070AF0EE000A20EE1A
:1082B000200A04EBC40001EB800080ED070A04EB08
:1082C000C40001EB800090ED080AF0EE000A20EEF9
:1082D000200A04EBC40001EB800080ED080A641C56
:1082E000AC42FFF659AF09202B4602AA0B49009079
:1082F000094804F0B5F808B9002048E7B7EE000ACD
:108300008DED0B0A43463A46314602A8FBF778F852
:108310003DE70000CC01002048700020789A002042
:1083200070B589B00024069407940894FE4E70CE70
:1083300003A870C0FC4E0C3670CE8DE87000FB4C6C
:108340002268FB4C2478002C7DD0FA4B03F5E151D8
:108350000020AEE09DED060A00EB400401EB840432
:10836000D4ED000A30EE200A8DED060A9DED070AD5
:1083700000EB4004641C01EB8404D4ED000A30EEF1
:10838000200A8DED070A9DED080A00EB4004A41CAD
:1083900001EB8404D4ED000A30EE200A8DED080ACA
:1083A00000EB400401EB840494ED000ADDED030AC8
:1083B000B4EEE00AF1EE10FA07DD00EB400401EB49
:1083C000840494ED000A8DED030A00EB400401EBF8
:1083D000840494ED000ADDED000AB4EEE00AF1EE4B
:1083E00010FA07D200EB400401EB840494ED000A7C
:1083F0008DED000A00EB4004641C01EB840494ED55
:10840000000ADDED040AB4EEE00AF1EE10FA08DD30
:1084100000EB4004641C01EB840494ED000A8DED34
:10842000040A00EB4004641C01EB840494ED000A90
:10843000DDED010AB4EEE00AF1EE10FA0AD200EB2B
:108440004004641C00E0D7E001EB840494ED000AD2
:108450008DED010A00EB4004A41C01EB840494EDB3
:10846000000ADDED050AB4EEE00AF1EE10FA08DDCF
:1084700000EB4004A41C01EB840494ED000A8DED94
:10848000050A00EB4004A41C01EB840494ED000AEF
:10849000DDED020AB4EEE00AF1EE10FA08D200EBCC
:1084A0004004A41C01EB840494ED000A8DED020A43
:1084B000401C9042FFF64EAFDDED060A00EE102A9A
:1084C000B8EEC00A80EE801A8DED061ADDED070ABF
:1084D00000EE102AB8EEC00A80EE801A8DED071A61
:1084E000DDED080A00EE102AB8EEC00A80EE801A10
:1084F0008DED081A9DED060A8F4C84ED000A9DED66
:10850000070A8E4C84ED000A9DED080A8C4C84ED20
:10851000000A9DED030ADDED000A30EE600AF0EE80
:10852000000A80EE201A874C84ED001A9DED040AA3
:10853000DDED010A30EE600AF0EE000A80EE201A4E
:10854000814C84ED001A9DED050ADDED020A30EE46
:10855000600AF0EE000A80EE201A7C4C84ED001ACE
:10856000002046E000EB400401EB840494ED000A97
:10857000714CD4ED000A30EE600A724CD4ED000A62
:1085800080EE201A00EB400401EB840484ED001A15
:1085900000EB4004641C01EB840494ED000A674C7A
:1085A000D4ED000A30EE600A674CD4ED000A80EE8C
:1085B000201A00EB4004641C01EB840484ED001AD3
:1085C00000EB4004A41C01EB840494ED000A5C4C15
:1085D000D4ED000A30EE600A5C4CD4ED000A80EE67
:1085E000201A00EB4004A41C01EB840484ED001A63
:1085F000401C9042B6DB5EE10020BDE09DED060A26
:1086000000EBC0044B4D05EB8404D4ED060A30EEBC
:10861000200A8DED060A9DED070A00EBC00405EB6C
:108620008404D4ED070A30EE200A8DED070A9DED93
:10863000080A00EBC00405EB8404D4ED080A30EE10
:10864000200A8DED080A00EBC00405EB840494EDCC
:10865000060ADDED030AB4EEE00AF1EE10FA07DDDA
:1086600000EBC00405EB840494ED060A8DED030ACB
:1086700000EBC0042F4D05EB840494ED060ADDEDFC
:10868000000AB4EEE00AF1EE10FA07D200EBC004E3
:1086900005EB840494ED060A8DED000A00EBC0049E
:1086A000244D05EB840494ED070ADDED040AB4EED5
:1086B000E00AF1EE10FA07DD00EBC00405EB8404DC
:1086C00094ED070A8DED040A00EBC004194D05EB8B
:1086D000840494ED070ADDED010AB4EEE00AF1EE40
:1086E00010FA07D200EBC00405EB840494ED070AEE
:1086F0008DED010A00EBC0040E4D05EB840494EDF2
:10870000080ADDED050AB4EEE00AF1EE10FA07DD25
:1087100000EBC00405EB840494ED080A8DED050A16
:1087200000EBC004034D13E0C8270108CC01002072
:10873000D001002048700020E0010020E40100206A
:10874000E8010020D4010020D8010020DC01002035
:1087500005EB840494ED080ADDED020AB4EEE00AAC
:10876000F1EE10FA07D200EBC00405EB840494ED9F
:10877000080A8DED020A401C9042FFF63FAFDDED86
:10878000060A00EE102AB8EEC00A80EE801A8DEDBF
:10879000061ADDED070A00EE102AB8EEC00A80EED8
:1087A000801A8DED071ADDED080A00EE102AB8EEEA
:1087B000C00A80EE801A8DED081A9DED060A3F4C26
:1087C00084ED000A9DED070A3D4C84ED000A9DED05
:1087D000080A3C4C84ED000A9DED030ADDED000A19
:1087E00030EE600AF0EE000A80EE201A364C84ED7E
:1087F000001A9DED040ADDED010A30EE600AF0EE8C
:10880000000A80EE201A314C84ED001A9DED050A15
:10881000DDED020A30EE600AF0EE000A80EE201A6A
:108820002B4C84ED001A002043E000EBC004294DDE
:1088300005EB840494ED060A204CD4ED000A30EEDA
:10884000600A214CD4ED000A80EE201A00EBC0042F
:1088500005EB840484ED061A00EBC00405EB8404E8
:1088600094ED070A164CD4ED000A30EE600A174C5E
:10887000D4ED000A80EE201A00EBC00405EB84045E
:1088800084ED071A00EBC00405EB840494ED080A9C
:108890000C4CD4ED000A30EE600A0D4CD4ED000A09
:1088A00080EE201A00EBC00405EB840484ED081A66
:1088B000401C9042B9DB09B070BD0000E00100200F
:1088C000E4010020E8010020D4010020D8010020AC
:1088D000DC0100204870002010B50246002010E0A6
:1088E00000210BE09FED120A00EBC003114C04EBDA
:1088F000830303EB810383ED000A491C0929F1DBA3
:10890000401CB0F5967FEBDB002007E0BFEE000ACD
:10891000094B03EB800383ED000A401CB0F5967F02
:10892000F4DB0023054C2360054B1A7010BD0000DA
:108930000000000048700020789A0020CC01002040
:10894000D001002070B504460A460026082502B969
:1089500009E0012A01D1160205E0022A01D116021E
:1089600001E04FF4407600F075F80546082D28D157
:108970001548006820F440701349086008460068F4
:10898000304308600846006820F0F8000860084698
:10899000006844F0020108430B490860084600687B
:1089A00040F48030086000F055F80546064800683D
:1089B00020F00200044908600846006820F0F80032
:1089C0000860284670BD0000103C02400348006863
:1089D00040F000400149086070470000103C024030
:1089E00030B502460C46082500F034F80546082D3F
:1089F00019D10E48006820F440700C490860084600
:108A0000006840F4007008600846006840F001000B
:108A10000860146000F01EF805460448006820F065
:108A2000010002490860284630BD0000103C0240A9
:108A30000548006800F0004028B1044802490C399C
:108A40000860034808607047103C024023016745F6
:108A5000AB89EFCD08B508200090FBF7A5FA009090
:108A600002E0FBF7A1FA00909DF800000128F8D081
:108A70009DF8000008BD0000024600210023F5EE2D
:108A8000C00AF1EE10FA01D800207047AAB19FED9C
:108A9000161A20EE011AC1EE201ABDEEE11A11EEEF
:108AA000101AB1F5004F02DB47F6FF7103E011F534
:108AB000004F00DA0D498BB213E09FED0D1A20EE46
:108AC000011AC1EE201ABDEEE11A11EE101AB1F52D
:108AD000803F02DB4FF6FF7102E0002900DA00213F
:108AE0008BB21846D1E70000000000470080FFFF6E
:108AF00000FF7F47F0B50A4600210023002400BF95
:108B00003DE0012505FA01F3156805EA03049C42DE
:108B100034D105684F000326BE40B5430560157982
:108B20004E00B5400668354305601579012D02D029
:108B30001579022D16D185684F000326BE40B54336
:108B4000856055794E00B540866835438560456837
:108B500001268E40B5434560456896798E40B6B291
:108B600035434560C5684F000326BE40B543C56028
:108B7000D5794E00B540C6683543C560491C1029FB
:108B8000BFD3F0BDF0B5002300244D07ED0E02FA6F
:108B900005F3CE1000F1200555F826504E07F70ECC
:108BA0000F26BE40B543CF1000F1200646F82750EF
:108BB000CE1000F1200555F8265045EA0304CE10EA
:108BC00000F1200545F82640F0BD000010B503F087
:108BD00069F804460CB9002010BDFE48D0F8280101
:108BE00000EE100ADFEDFC0AB4EEE00AF1EE10FA36
:108BF00002D29FEDF90A13E0F648D0F8280100EE02
:108C0000100ADFEDF60AB4EEE00AF1EE10FA02DD2A
:108C10009FEDF20A04E0EF48D0F8280100EE100AB8
:108C200010EE100AEB49C1F828010846D0F82401DB
:108C300000EE100ADFEDEA0AB4EEE00AF1EE10FAF7
:108C400002D29FEDE70A13E0E248D0F8240100EEDB
:108C5000100ADFEDE20AB4EEE00AF1EE10FA02DDEE
:108C60009FEDDE0A04E0DB48D0F8240100EE100A94
:108C700010EE100AD749C1F824010846D0F82C019B
:108C800000EE100AFAEE040AB4EEE00AF1EE10FA71
:108C900002D2BAEE040A13E0CE48D0F82C0100EE5E
:108CA000100AF2EE040AB4EEE00AF1EE10FA02DD68
:108CB000B2EE040A04E0C748D0F82C0100EE100A16
:108CC00010EE100AC349C1F82C010846D0F8300153
:108CD00000EE100AFAEE040AB4EEE00AF1EE10FA21
:108CE00002D2BAEE040A13E0BA48D0F8300100EE1E
:108CF000100AF2EE040AB4EEE00AF1EE10FA02DD18
:108D0000B2EE040A04E0B348D0F8300100EE100AD5
:108D100010EE100AAF49C1F830010846D0F828011A
:108D200000EE100AAF4880ED060A0846D0F824018C
:108D300000EE100AAB4880ED050A0846D0F82C0179
:108D400000EE100AA74880ED070A0846D0F8300167
:108D500000EE100AA34880ED080A0846D0F820016A
:108D6000A049C8739B48D0F8380100EE100A0846A5
:108D700080ED1B0A9748D0F83C0100EE100A084627
:108D800080ED180A9348D0F8400100EE100A08461A
:108D900080ED1F0A8F48D0F8340100EE100A084613
:108DA00080ED1A0A8B48006800EE100A8E4880EDAC
:108DB000000A8848406800EE100A8B4880ED010ADE
:108DC0008448806800EE100A874880ED020A8148D6
:108DD000C06800EE100A844880ED030A7D480069EF
:108DE00000EE100A804880ED040A7A48406900EEDF
:108DF000100A7D4880ED050A7648806900EE100A69
:108E0000794880ED060A7348C06900EE100A76487A
:108E100080ED070A6F48006A00EE100A734880ED83
:108E2000000A6C48406A00EE100A704880ED010AA2
:108E30006848806A00EE100A6C4880ED020A6548B6
:108E4000C06A00EE100A694880ED030A6148006BB1
:108E500000EE100A654880ED040A5E48406B00EEA3
:108E6000100A624880ED050A5A48806B00EE100A2D
:108E70005E4880ED060A5748C06B00EE100A5B485A
:108E800080ED070A5348006C00EE100A584880ED48
:108E9000000A5048406C00EE100A554880ED010A67
:108EA0004C48806C00EE100A514880ED020A494897
:108EB000C06C00EE100A4E4880ED030A4548006D74
:108EC00000EE100A4A4880ED040A4248406D00EE68
:108ED000100A474880ED050A3E48806D00EE100AF2
:108EE000434880ED060A3B48C06D00EE100A40483A
:108EF00080ED070A3748006E00EE100A3D4880ED0D
:108F0000000A3448406E00EE100A3A4880ED010A2B
:108F10003048806E00EE100A364880ED020A2D4877
:108F2000C06E00EE100A334880ED030A2948006F36
:108F300000EE100A2F4880ED040A2648406F00EE2C
:108F4000100A2C4880ED050A2248806F00EE100AB6
:108F5000284880ED060A1F48C06F00EE100A254819
:108F600080ED070A1B48D0F8800000EE100A224866
:108F700080ED000A1748D0F8840000EE100A1E4861
:108F800080ED010A1348D0F8880000EE100A1A4854
:108F900080ED020A0F48D0F88C0000EE100A164847
:108FA00080ED030A0B48D0F8900000EE100A12483A
:108FB00080ED040A0748D0F8940000EE100A0E482D
:108FC00080ED050A0348D0F8980000EE100A0A4820
:108FD00014E00000381E00203333B33E15AEC73E08
:108FE000CDCC4C3EF0010020880200202003002060
:108FF000B803002050040020E804002080ED060A99
:10900000FE48D0F89C0000EE100AFD4880ED070AEB
:10901000FA48D0F8A00000EE100AFA4880ED000AE5
:10902000F648D0F8A40000EE100AF64880ED010AD8
:10903000F248D0F8A80000EE100AF24880ED020ACB
:10904000EE48D0F8AC0000EE100AEE4880ED030ABE
:10905000EA48D0F8B00000EE100AEA4880ED040AB1
:10906000E648D0F8B40000EE100AE64880ED050AA4
:10907000E248D0F8B80000EE100AE24880ED060A97
:10908000DE48D0F8BC0000EE100ADE4880ED070A8A
:10909000DA48D0F8C00000EE100ADB4880ED000A84
:1090A000D648D0F8C40000EE100AD74880ED010A77
:1090B000D248D0F8C80000EE100AD34880ED020A6A
:1090C000CE48D0F8CC0000EE100ACF4880ED030A5D
:1090D000CA48D0F8D00000EE100ACB4880ED040A50
:1090E000C648D0F8D40000EE100AC74880ED050A43
:1090F000C248D0F8D80000EE100AC34880ED060A36
:10910000BE48D0F8DC0000EE100ABF4880ED070A28
:10911000BA48D0F8000100EE100ABC4880ED000A01
:10912000B648D0F8040100EE100AB84880ED010AF4
:10913000B248D0F8080100EE100AB44880ED020AE7
:10914000AE48D0F80C0100EE100AB04880ED030ADA
:10915000AA48D0F8100100EE100AAC4880ED040ACD
:10916000A648D0F8140100EE100AA84880ED050AC0
:10917000A248D0F8180100EE100AA44880ED060AB3
:109180009E48D0F81C0100EE100AA04880ED070AA6
:109190009A48D0F8E00000EE100A9D4880ED000AE1
:1091A0009648D0F8E40000EE100A994880ED010AD4
:1091B0009248D0F8E80000EE100A954880ED020AC7
:1091C0008E48D0F8EC0000EE100A914880ED030ABA
:1091D0008A48D0F8F00000EE100A8D4880ED040AAD
:1091E0008648D0F8F40000EE100A894880ED050AA0
:1091F0008248D0F8F80000EE100A854880ED060A93
:109200007E48D0F8FC0000EE100A814880ED070A85
:109210007A4890ED510A7F4880ED000A774890ED3A
:10922000520A7C4880ED010A744890ED530A79484F
:1092300080ED020A714890ED540A764880ED030AE9
:109240006E4890ED550A734880ED040A6B4890ED26
:10925000560A704880ED050A684890ED570A6D4837
:1092600080ED060A654890ED580A6A4880ED070AC5
:10927000624890ED590A674880ED080A5F4890ED12
:109280005A0A644880ED090A5C4890ED5B0A61481F
:1092900080ED0A0A594890ED5C0A5E4880ED0B0AA1
:1092A000564890ED5D0A5B4880ED0C0A534890EDFE
:1092B0005E0A584880ED0D0A504890ED5F0A554807
:1092C00080ED0E0A4D4890ED600A524880ED0F0A7D
:1092D0004A4890ED610A4F4880ED100A474890EDEA
:1092E000620A4C4880ED110A444890ED630A4948EF
:1092F00080ED120A414890ED640A464880ED130A59
:109300003E4890ED650A434880ED140A3B4890EDD5
:10931000660A404880ED150A384890ED670A3D48D6
:1093200080ED160A354890ED680A3A4880ED170A34
:10933000324890ED690A374880ED180A2F4890EDC1
:109340006A0A344880ED190A2C4890ED6B0A3148BE
:1093500080ED1A0A294890ED6C0A2E4880ED1B0A10
:10936000264890ED6D0A2B4880ED1C0A234890EDAD
:109370006E0A284880ED1D0A204890ED6F0A2548A6
:1093800080ED1E0A1D4890ED700A224880ED1F0AEC
:109390001A4890ED710A1F4880ED200A174890ED99
:1093A000720A1C4880ED210A144890ED730A19488E
:1093B00080ED220A114890ED740A164880ED230AC8
:1093C0000E4890ED750A134880ED240A0B4890ED85
:1093D000760A104880ED250A084890ED770A0D4876
:1093E00080ED260A054890ED780A0A4880ED270AA4
:1093F000024890ED790A07480EE00000381E002070
:10940000E80400208005002018060020B006002097
:10941000480700203800002080ED280A0F4890ED12
:109420007A0A0F4880ED290A0C4890ED7B0A0C4817
:1094300080ED2A0A094890ED7C0A094880ED2B0A44
:10944000064890ED7D0A064880ED2C0A1822054951
:109450000548F6F7B5FE0120FFF7BEBB381E002019
:109460003800002030200020A81C0020B5EEC00AE3
:10947000F1EE10FA02DDF0EE400A01E0F1EE400AF2
:109480009FED1E1AF4EEC10AF1EE10FA11DDB5EEF1
:10949000C00AF1EE10FA06DDDFED190A70EE600A7F
:1094A000B0EE600A05E0DFED160A70EE200AB0EEBD
:1094B000600AB5EEC00AF1EE10FA02DDF0EE400AE5
:1094C00001E0F1EE400A9FED0D1AF4EEC10AF1EE53
:1094D00010FA11DDB5EEC00AF1EE10FA06DDDFED8F
:1094E000080A70EE600AB0EE600A05E0DFED040ADB
:1094F00070EE200AB0EE600A7047000000003443AE
:109500000000B44330B505460C46A54201DA2846B2
:1095100030BD281B85B221462846FFF7F3FFF7E749
:10952000F0B5E5B006460D4600240027502D01DDBC
:1095300065B0F0BD002454E304EB8407F05D01A99D
:10954000085501A8005D3F2874D022DC65D2DFE811
:1095500000F0646465666764646464646468727B74
:10956000848D9764646464A0AEB7CAD3F5FEF264D8
:1095700064F1F0EFEEEDEC64646464EBEAE9E8E7D3
:10958000E6E5E46464E3E2E1E0DFDE64646464DDB4
:10959000DC005C2873D013DCA0F140001C28D5D27D
:1095A000DFE800F0F0EFEEEDEC3B3BEBEAE9E8E75B
:1095B000E6E53B3B3BE4E3E2E1E0DF3B3B3B3BDE1C
:1095C000CE286FD014DCC8286DD008DC5D286BD0A5
:1095D0005E286AD05F2869D060281ED18BE2C92836
:1095E00077D0CA2876D0CB2875D0CC28F5D1A7E281
:1095F000E12871D008DCCF286FD0D0286ED0DF28CA
:109600006DD0E028E9D1C5E2E22869D0E32868D02E
:10961000E42867D0E528E0D1DAE2E0E2DFE2DEE24A
:10962000DDE2FB4890ED040A15A800EB840080ED14
:10963000000AD4E276E1F64890ED050A15A800EBA1
:10964000840080ED000ACAE2F14890ED060A15A8F0
:1096500000EB840080ED000AC1E2ED4890ED010AC4
:1096600015A800EB840080ED000AB8E2E84890ED10
:10967000020A15A800EB840080ED000AAFE216E2B2
:10968000E34890ED000A15A800EB840080ED000A85
:10969000A5E2E04890ED040A15A800EB840080EDF7
:1096A000000A9CE255E22FE20AE212E21AE2D948ED
:1096B00090ED050A15A800EB840080ED000A8EE20B
:1096C000D44890ED060A15A800EB840080ED000A4E
:1096D00085E222E22AE22AE262E243E24BE253E23C
:1096E00064E269E26EE2CB4890ED010A15A800EB56
:1096F000840080ED000A72E2C64890ED020A15A8C7
:1097000000EB840080ED000A69E202E1F8E0EEE09F
:10971000E4E0DAE0D0E0C6E0BCE0B2E0A8E09EE041
:1097200094E08AE080E076E06CE062E058E04EE0B1
:1097300044E03AE030E026E009E0FFE7B54890ED8C
:10974000070A15A800EB840080ED000A47E2B14843
:1097500090ED030A15A800EB840080ED000A3EE2BC
:109760009CE192E188E17EE174E16AE160E145E13A
:109770003BE131E127E11DE113E109E1FFE0F5E023
:10978000EBE0E1E0D7E0A34890ED000A15A800EB7C
:10979000840080ED000A22E29F4890ED040A15A89B
:1097A00000EB840080ED000A19E29B4890ED050A69
:1097B00015A800EB840080ED000A10E2964890EDB9
:1097C000060A15A800EB840080ED000A07E2924823
:1097D00090ED010A15A800EB840080ED000AFEE17F
:1097E0008D4890ED020A15A800EB840080ED000A78
:1097F000F5E1894890ED000A15A800EB840080EDA2
:10980000000AECE1854890ED040A15A800EB8400FD
:1098100080ED000AE3E1814890ED050A15A800EB10
:10982000840080ED000ADAE17C4890ED060A15A874
:1098300000EB840080ED000AD1E1784890ED010A48
:1098400015A800EB840080ED000AC8E1734890ED94
:10985000020A15A800EB840080ED000ABFE16F4802
:1098600090ED070A15A800EB840080ED000AB6E130
:109870006A4890ED030A15A800EB840080ED000A09
:10988000ADE1664890ED000A15A800EB840080ED7C
:10989000000AA4E1624890ED040A15A800EB8400D8
:1098A00080ED000A9BE15E4890ED050A15A800EBEB
:1098B000840080ED000A92E1594890ED060A15A84F
:1098C00000EB840080ED000A89E1554890ED010A23
:1098D00015A800EB840080ED000A80E1504890ED6F
:1098E000020A15A800EB840080ED000A77E14C48DD
:1098F00090ED000A15A800EB840080ED000A6EE1EF
:10990000484890ED040A15A800EB840080ED000A99
:1099100065E1444890ED050A15A800EB840080ED50
:10992000000A5CE13F4890ED060A15A800EB8400B0
:1099300080ED000A53E13B4890ED010A15A800EBC9
:10994000840080ED000A4AE1364890ED020A15A82D
:1099500000EB840080ED000A41E1324890ED070AF7
:1099600015A800EB840080ED000A38E12D4890ED49
:10997000030A15A800EB840080ED000A2FE12948B6
:1099800090ED000A15A800EB840080ED000A26E1A6
:10999000254890ED040A15A800EB840080ED000A2C
:1099A0001DE1214890ED050A15A800EB840080ED2B
:1099B000000A14E11C4890ED060A15A800EB84008B
:1099C00080ED000A0BE1184890ED010A15A800EBA4
:1099D000840080ED000A02E1134890ED020A15A808
:1099E00000EB840080ED000AF9E00F4890ED000ADA
:1099F00015A800EB840080ED000AF0E00B4890ED24
:109A00001A0A15A800EB840080ED000AE7E00000C8
:109A10008802002020030020B8030020500400200A
:109A2000E80400208005002018060020F001002036
:109A3000714890ED040A15A800EB840080ED000A3F
:109A4000CDE06D4890ED050A15A800EB840080ED8F
:109A5000000AC4E0684890ED060A15A800EB8400EF
:109A600080ED000ABBE0644890ED010A15A800EB08
:109A7000840080ED000AB2E05F4890ED020A15A86C
:109A800000EB840080ED000AA9E05B4890ED000A3D
:109A900015A800EB840080ED000AA0E0574890ED87
